:100000000C942A000C9447000C9447000C94470071
:100010000C9447000C9447000C9447000C94470044
:100020000C9447000C9447000C9447000C94470034
:100030000C9447000C9447000C9447000C94470024
:100040000C9447000C9447000C9447000C94470014
:100050000C94470011241FBECFE5D8E0DEBFCDBF12
:1000600011E0A0E6B0E0E2E0F3E102C005900D92FD
:10007000A231B107D9F721E0A2E1B1E001C01D92A0
:10008000A339B207E1F70E949D010C947F090C94FB
:100090000000A0E0B0E09C01AD0184E0220F331F1E
:1000A000441F551F8A95D1F760E074E284EF90E019
:1000B0000E9405042150310930BD29B9599888E1C1
:1000C0008AB986E880BD08955D9BFECF8CB90895FE
:1000D0005F9BFECF8CB10895CF93DF93EC018991A4
:1000E000882319F00E946400FACFDF91CF91089520
:1000F00087EE86B910BE0895806487B98FE99FE0C6
:100100000197F1F700C0000084B125B190E0922B77
:100110000895BD9AC5982FEF89EF90E02150804057
:100120009040E1F700C00000C59A0895BD98B59BC6
:1001300005C0B599FCCFB599FECFFBCF089528E057
:1001400030E0B59BFECF80EA8A95F1F780911201ED
:10015000880FB599816080931201B599FECF215027
:10016000310979F7809112010895AE9A00C000C05C
:10017000AE980895CF93DF93D82F662311F0AC9AF1
:1001800001C0AC98AD9884B38F6084BBC5B3C07F09
:100190008D2F82958F708C2B85BB0E94B500DF70F0
:1001A000DC2BD5BB0E94B500CF60C5BBDF91CF91E2
:1001B0000895AC98AD9A84B3807F84BBAE9A00C09A
:1001C00000C093B3AE9800C000C0AE9A00C000C09B
:1001D00023B32F70892F8295807FAE98822B08954C
:1001E000CF93DF93C9EED3E00E94D90087FF02C00E
:1001F0002197D1F788E090E00197F1F7DF91CF9157
:100200000C94D900CF93C82F0E94F00060E08C2F8F
:10021000CF910C94BA00CF93C82F0E94F00061E0F8
:100220008C2FCF910C94BA00611102C0805801C08C
:1002300080540C9402010E94F00090E0089581E047
:100240000C94020182E00C940201CF93C82F0E940B
:10025000F000CA3049F4803410F080E001C080E43E
:100260008058CF910C94020161E08C2FCF910C94B7
:10027000BA000F931F93CF93DF93EC018C010B5EB9
:100280001F4F8991882331F0C017D10719F00E94C0
:100290002501F7CFDF91CF911F910F910895CF9353
:1002A000DF93FC018491EF012196882321F00E94C5
:1002B0002501FE01F7CFDF91CF9108951F93CF93D2
:1002C000DF93182F84B38F6784BB81B3806781BBB2
:1002D0002FEF81EE94E0215080409040E1F700C084
:1002E0000000A99AA89A0E94B5008FE39CE90197A3
:1002F000F1F700C000000E94B500C0E0D1E0CE01DF
:100300000197F1F70E94B500CE010197F1F7A89887
:100310000E94B5002197F1F788E20E94020188E06F
:100320000E9402010E941F0186E00E940201812FAB
:10033000DF91CF911F910C94020180E895E20E9419
:1003400049000E9478008CE00E945E012FEF33ED9F
:1003500080E3215030408040E1F700C000008FEF83
:1003600087BB81E088BB1ABA60E080E00E9414017C
:1003700080E690E00E9439019FEF23ED30E3915039
:1003800020403040E1F700C0000081E3282E81E0EA
:10039000382E9EE7892E90E0992ECDE1D1E008E934
:1003A00010E02FE4A22E21E0B22E80E00E947C001B
:1003B000BC01990F880B990B0E94430520E030EC9B
:1003C0004FE754E40E94990420E030E048EC52E406
:1003D0000E94F3059B01AC0160E070E088EC92E4C0
:1003E0000E9427042B013C0160936B0170936C0108
:1003F00080936D0190936E0120E030E048E452E478
:100400000E94940487FF02C0C19A01C0C198609104
:100410006B0170916C0180916D0190916E010E9451
:100420000B057F936F9388E690E09F938F933F92A5
:100430002F920E94850681E391E00E946C008AE081
:100440000E9464008DE00E94640081E00E947C00B4
:10045000BC01990F880B990B0E94430520E030ECFA
:100460004FE754E40E94990420E030E048EC52E465
:100470000E94F3059B01AC0160E070E088EC92E41F
:100480000E9427046B017C016093670170936801EF
:100490008093690190936A010F900F900F900F90D5
:1004A0000F900F9020E030E048E452E40E94940462
:1004B00087FF02C0C39A01C0C39860916701709121
:1004C00068018091690190916A010E940B057F93F8
:1004D0006F939F928F92DF93CF930E9485068DE159
:1004E00091E00E946C008AE00E9464008DE00E940E
:1004F0006400A7019601C301B2010E94280420E014
:1005000030E040E05FE30E94F30560936301709385
:10051000640180936501909366010E940B057F93AF
:100520006F931F930F93BF92AF920E9485062DB7D2
:100530003EB7245F3F4F0FB6F8943EBF0FBE2DBFAE
:1005400020E030E048E452E4C301B2010E94940488
:1005500087FF41C020E030E048E452E4C701B60123
:100560000E94940487FF37C060E080E00E9414017D
:100570008CE990E00E94390161E080E00E94140162
:100580008FE491E00E94390161E082E00E94140151
:100590008BEA90E00E9439013FEF83EC99E0315003
:1005A00080409040E1F700C00000C49A2AEA36EE8D
:1005B00086E991E02150304080409040D9F700001A
:1005C000C4982FEF33E284EF215030408040E1F7B0
:1005D00000C0000001C0C4989FEF23EC39E09150A7
:1005E00020403040E1F700C000000E9489000E94D6
:1005F00096000E949F0080937D010E949F0080933F
:100600007A010E949F0080937C010E949F0080934A
:100610007E010E949F0080937B01E0917D01F0E0CC
:1006200090917A019F01290F311D90917C01290F32
:10063000311D90917E01290F311D90E02817390757
:1006400039F060E080E00E94140188EB90E064C023
:100650004AE060E771E0CF010E9460068EEB90E017
:100660000E946C0080E791E00E946C008DEC90E0AD
:100670000E946C0080917A014AE06FE771E090E09F
:100680000E9460068FE791E00E946C008FEC90E082
:100690000E946C008AE00E9464008DE00E94640069
:1006A00080917C014AE069E871E090E00E94600678
:1006B00081ED90E00E946C0089E891E00E946C005E
:1006C0008DEC90E00E946C0080917E014AE063E135
:1006D00071E090E00E94600683E191E00E946C006E
:1006E0008FED90E00E946C008AE00E9464008DE033
:1006F0000E94640080917B014AE065E471E090E033
:100700000E94600682EE90E00E946C0085E491E019
:100710000E946C0086EB90E00E946C008AE00E94D0
:1007200064008DE00E94640060E080E00E9414019B
:100730008CE990E00E94390161E080E00E941401A0
:100740008FE491E00E94390161E082E00E9414018F
:100750008BEA90E00E9439018FEF9DE329E48150FC
:1007600090402040E1F700C0000080917D01882387
:1007700019F10E941F0160E080E00E9414018DEEDB
:1007800090E00E94390161E080E00E94140180E75E
:1007900091E00E94390161E083E00E9414018BEF37
:1007A00090E00E9439013FEF8DE399E431508040A1
:1007B0009040E1F700C0000080917C01882309F49B
:1007C000F4CD0E941F0160E080E00E9414018FEFD1
:1007D00090E00E94390161E080E00E94140189E804
:1007E00091E00E94390161E083E00E9414018CE0F5
:1007F00091E00E9439012FEF33ED80E3215030402A
:100800008040E1F700C00000D0CDA1E21A2EAA1B63
:10081000BB1BFD010DC0AA1FBB1FEE1FFF1FA217B0
:10082000B307E407F50720F0A21BB30BE40BF50BAD
:10083000661F771F881F991F1A9469F76095709536
:10084000809590959B01AC01BD01CF010895505852
:10085000BB27AA270E943F040C94B9050E94AB0550
:1008600038F00E94B20520F039F49F3F19F426F4C5
:100870000C94A8050EF4E095E7FB0C94A205E92F73
:100880000E94CA0558F3BA176207730784079507D1
:1008900020F079F4A6F50C94EC050EF4E0950B2EFF
:1008A000BA2FA02D0B01B90190010C01CA01A001C2
:1008B0001124FF27591B99F0593F50F4503E68F11D
:1008C0001A16F040A22F232F342F4427585FF3CF5E
:1008D000469537952795A795F0405395C9F77EF42F
:1008E0001F16BA0B620B730B840BBAF09150A1F078
:1008F000FF0FBB1F661F771F881FC2F70EC0BA0FFE
:10090000621F731F841F48F4879577956795B79585
:10091000F7959E3F08F0B0CF9395880F08F0992780
:10092000EE0F9795879508950E947E0508F481E063
:1009300008950E94AD040C94B9050E94B20558F0C8
:100940000E94AB0540F029F45F3F29F00C94A2050A
:1009500051110C94ED050C94A8050E94CA0568F38A
:100960009923B1F3552391F3951B550BBB27AA2768
:1009700062177307840738F09F5F5F4F220F331FA2
:10098000441FAA1FA9F335D00E2E3AF0E0E832D06A
:1009900091505040E695001CCAF72BD0FE2F29D06D
:1009A000660F771F881FBB1F261737074807AB073F
:1009B000B0E809F0BB0B802DBF01FF2793585F4FB4
:1009C0003AF09E3F510578F00C94A2050C94ED0589
:1009D0005F3FE4F3983ED4F3869577956795B79596
:1009E000F7959F5FC9F7880F911D9695879597F9A1
:1009F0000895E1E0660F771F881FBB1F621773071A
:100A00008407BA0720F0621B730B840BBA0BEE1F2E
:100A100088F7E09508950E9412056894B1110C942E
:100A2000ED0508950E94D20588F09F5798F0B92FE0
:100A30009927B751B0F0E1F0660F771F881F991F13
:100A40001AF0BA95C9F714C0B13091F00E94EC05C4
:100A5000B1E008950C94EC05672F782F8827B85FD4
:100A600039F0B93FCCF3869577956795B395D9F76B
:100A70003EF490958095709561957F4F8F4F9F4F75
:100A80000895E89409C097FB3EF490958095709581
:100A900061957F4F8F4F9F4F9923A9F0F92F96E9CA
:100AA000BB279395F695879577956795B795F1113F
:100AB000F8CFFAF4BB0F11F460FF1BC06F5F7F4FDC
:100AC0008F4F9F4F16C0882311F096E911C07723EE
:100AD00021F09EE8872F762F05C0662371F096E8F7
:100AE000862F70E060E02AF09A95660F771F881FC6
:100AF000DAF7880F9695879597F90895990F00086A
:100B0000550FAA0BE0E8FEEF16161706E807F907DF
:100B1000C0F012161306E407F50798F0621B730B7A
:100B2000840B950B39F40A2661F0232B242B252BFB
:100B300021F408950A2609F4A140A6958FEF811D9E
:100B4000811D089597F99F6780E870E060E008953F
:100B50009FEF80EC089500240A94161617061806D5
:100B60000906089500240A941216130614060506B1
:100B70000895092E0394000C11F4882352F0BB0F42
:100B800040F4BF2B11F460FF04C06F5F7F4F8F4FA5
:100B90009F4F089557FD9058440F551F59F05F3FE0
:100BA00071F04795880F97FB991F61F09F3F79F08F
:100BB00087950895121613061406551FF2CF469511
:100BC000F1DF08C0161617061806991FF1CF869593
:100BD0007105610508940895E894BB276627772777
:100BE000CB0197F908950E9406060C94B9050E945E
:100BF000AB0538F00E94B20520F0952311F00C945B
:100C0000A2050C94A80511240C94ED050E94CA05B8
:100C100070F3959FC1F3950F50E0551F629FF0014F
:100C2000729FBB27F00DB11D639FAA27F00DB11D68
:100C3000AA1F649F6627B00DA11D661F829F2227F1
:100C4000B00DA11D621F739FB00DA11D621F839F78
:100C5000A00D611D221F749F3327A00D611D231F4E
:100C6000849F600D211D822F762F6A2F11249F579C
:100C700050409AF0F1F088234AF0EE0FFF1FBB1F9F
:100C8000661F771F881F91505040A9F79E3F51055E
:100C900080F00C94A2050C94ED055F3FE4F3983EC0
:100CA000D4F3869577956795B795F795E7959F5F08
:100CB000C1F7FE2B880F911D9695879597F908959A
:100CC000BB274A3031F4992322F4BDE290958195F7
:100CD0009F4F0C946C06BB27FB015527AA27880F52
:100CE000991FAA1FA41710F0A41B83955051B9F7A0
:100CF000A05DAA3308F0A95DA193009779F7B1111F
:100D0000B1931192CB010C949E08AEE0B0E0EBE8F9
:100D1000F6E00C9456090D891E8986E08C831A83AF
:100D200009838FEF9FE79E838D83AE01475E5F4F00
:100D30006F89788DCE0101960E94A706EF81F88514
:100D4000E00FF11F10822E96E4E00C947209ABE0E4
:100D5000B0E0EDEAF6E00C9448096C017B018A01F1
:100D6000FC0117821682838181FFCCC1CE010196DE
:100D70003C01F6019381F70193FD859193FF8191E9
:100D80007F01882309F4BAC1853239F493FD859136
:100D900093FF81917F01853229F4B60190E00E9492
:100DA000AE08E7CF912C212C312CFFE1F315D8F0C0
:100DB0008B3279F038F4803279F08332A1F4232D2C
:100DC00020611DC08D3261F0803369F4232D2160D4
:100DD00016C0832D8260382EE32DE4603E2E2AC09B
:100DE000F32DF8601DC037FC2DC020ED280F2A30F0
:100DF00040F08E32B9F436FC81C1232D2064322EAE
:100E000019C036FE06C08AE0989E200D1124922E4D
:100E100011C0EAE02E9E200D1124222EF32DF06247
:100E20003F2E08C08C3621F4832D8068382E02C0F6
:100E3000883641F4F70193FD859193FF81917F01FD
:100E40008111B3CF982F9F7D9554933028F40C5F78
:100E50001F4F9FE399830DC0833631F0833771F0C4
:100E6000833509F059C021C0F801808189830E5F64
:100E70001F4F88248394912C530113C02801F2E062
:100E80004F0E511CF801A080B18036FE03C0692DC1
:100E900070E002C06FEF7FEFC5010E9493084C0124
:100EA0008201F32DFF773F2E16C0280122E0420E6B
:100EB000511CF801A080B18036FE03C0692D70E09E
:100EC00002C06FEF7FEFC5010E9488084C01F32D2F
:100ED000F0683F2E820133FC1BC0822D90E0881603
:100EE0009906B0F4B60180E290E00E94AE082A9420
:100EF000F4CFF50137FC859137FE81915F01B60192
:100F000090E00E94AE0821102A9421E0821A9108F4
:100F10008114910471F7E8C0843611F0893641F5E7
:100F2000F80137FE07C060817181828193810C5F77
:100F30001F4F08C060817181072E000C880B990B30
:100F40000E5F1F4FF32DFF763F2E97FF09C0909540
:100F50008095709561957F4F8F4F9F4FF0683F2E22
:100F60002AE030E0A3010E94EA08882E861845C0D6
:100F7000853731F4232D2F7EB22E2AE030E025C0B4
:100F8000932D997FB92E8F36C1F018F4883579F0FA
:100F9000B5C0803719F0883721F0B0C0E92FE06183
:100FA000BE2EB4FE0DC0FB2DF460BF2E09C034FE72
:100FB0000AC0292F2660B22E06C028E030E005C006
:100FC00020E130E002C020E132E0F801B7FE07C0C6
:100FD00060817181828193810C5F1F4F06C06081A7
:100FE000718180E090E00E5F1F4FA3010E94EA082C
:100FF000882E8618FB2DFF773F2E36FE0DC0232D41
:101000002E7FA22E891458F434FE0BC032FC09C086
:10101000832D8E7EA82E05C0B82CA32C03C0B82C1F
:1010200001C0B92CA4FE0FC0FE01E80DF11D8081A6
:10103000803321F49A2D997EA92E09C0A2FE06C004
:10104000B394B39404C08A2D867809F0B394A3FCBA
:1010500011C0A0FE06C0B21488F4280C922C9B1874
:101060000EC0B21460F4B60180E290E00E94AE08B7
:10107000B394F7CFB21418F42B1802C0982C212C7B
:10108000A4FE10C0B60180E390E00E94AE08A2FE6C
:1010900017C0A1FC03C088E790E002C088E590E09B
:1010A000B6010CC08A2D867859F0A1FE02C08BE2F1
:1010B00001C080E2A7FC8DE2B60190E00E94AE087C
:1010C000891438F4B60180E390E00E94AE089A9447
:1010D000F7CF8A94F301E80DF11D8081B60190E00D
:1010E0000E94AE088110F5CF222009F442CEB6014D
:1010F00080E290E00E94AE082A94F6CFF601868145
:10110000978102C08FEF9FEF2B96E2E10C94640968
:10111000FC010590615070400110D8F780959095C2
:101120008E0F9F1F0895FC016150704001900110C7
:10113000D8F7809590958E0F9F1F0895DC01FC01D4
:10114000672F71917723E1F7329704C07C916D93FB
:1011500070836291AE17BF07C8F308950F931F9372
:10116000CF93DF93FB01238121FD03C08FEF9FEF1E
:101170002CC022FF16C04681578124813581421739
:10118000530744F4A081B1819D012F5F3F4F31830C
:1011900020838C93268137812F5F3F4F37832683AF
:1011A00014C08B01EC01FB010084F185E02D099551
:1011B000892BE1F6D80116968D919C91179701968F
:1011C00017969C938E931697CE01DF91CF911F9126
:1011D0000F910895FA01AA27283051F1203181F1A9
:1011E000E8946F936E7F6E5F7F4F8F4F9F4FAF4F2F
:1011F000B1E03ED0B4E03CD0670F781F891F9A1F42
:10120000A11D680F791F8A1F911DA11D6A0F711DF5
:10121000811D911DA11D20D009F468943F912AE001
:10122000269F11243019305D3193DEF6CF010895E9
:10123000462F4770405D4193B3E00FD0C9F7F6CF1A
:10124000462F4F70405D4A3318F0495D31FD4052E2
:10125000419302D0A9F7EACFB4E0A6959795879578
:1012600077956795BA95C9F7009761057105089557
:101270009B01AC010A2E0694579547953795279503
:10128000BA95C9F7620F731F841F951FA01D08959B
:101290002F923F924F925F926F927F928F929F9286
:1012A000AF92BF92CF92DF92EF92FF920F931F9374
:1012B000CF93DF93CDB7DEB7CA1BDB0B0FB6F89425
:1012C000DEBF0FBECDBF09942A88398848885F8465
:1012D0006E847D848C849B84AA84B984C884DF80D6
:1012E000EE80FD800C811B81AA81B981CE0FD11DBA
:1012F0000FB6F894DEBF0FBECDBFED010895F89490
:02130000FFCF1D
:1013020057656C636F6D6500536F696C2068756D0E
:101312006964697479202830293A20256400536F62
:10132200696C2068756D6964697479202831293A7D
:1013320020256420200D0A0025642000536F696C6B
:101342002068756D69646974793A0020252020202F
:1013520020202020202020004572726F72004169F7
:10136200722068756D69646974793A20002E0025CF
:101372000054656D70657261747572653A20004340
:101382002000436865636B73756D3A200041697292
:101392002068756D69646974793A002520200054CB
:1013A200656D70657261747572653A004320202024
:0213B200000039
:00000001FF
